:020000040000FA
:0400000080312C28F7
:100008007E1480312E00101C0A280B280F288F31EF
:100018008F2780310F282E00121C13281428182827
:100028008E31B926803118282E00921C1C281D28D4
:1000380021288F312427803121282E00901C252843
:1000480026282A288D31C72580312A287E100900C4
:1000580080312E28E430840087308500A030860067
:10006800003087000A308731EE278031F901583097
:1000780084000030850017308731F4278031210053
:10008800AA01AB01AC01AD017E1020008D31332DEA
:10009800200028088039AD002D08B2002835AD00B1
:1000A8002D08B800A71F59285A285C2838145C283E
:1000B80038080319602861287128380A031D652843
:1000C80066286F280030A8000030A7000030A6007E
:1000D8000030A5006F28A7177A280030A800003044
:1000E800A7000030A6000030A5007A282C08803927
:1000F800AD002D08B2062C35AD002D08B700AB1F9A
:1001080086288728892837148928370803198D28CD
:100118008E289E28370A031D922893289C28003091
:10012800AC000030AB000030AA000030A9009C28C9
:10013800AB17A7280030AC000030AB000030AA0095
:100148000030A900A72837080319AB28AC28B22823
:100158003808031DB028B128BC28B2280030A800F0
:100168000030A7000030A6000030A500B62AB62A45
:100178002508AD002D08F4002B088D317625803137
:1001880075082000BE007408BD003D08AD00AE0132
:10019800AF01B0013008B6002F08B5002E08B40032
:1001A8002D08B3003E08AD00AE01AF01B001300824
:1001B800BC002F08BB002E08BA002D08B90026087D
:1001C800AD002D08F4002A088D3176258031750898
:1001D8002000BE007408BD003D08AD00AE01AF01AF
:1001E800B0012D08B3072E08B43D2F08B53D3008DF
:1001F800B63D3E08AD00AE01AF01B0012D08B9070C
:100208002E08BA3D2F08BB3D3008BC3D2708AD007D
:100218002D08F40029088D317625803175082000D5
:10022800BE007408BD003D08AD00AE01AF01B001CD
:100238002D08B3072E08B43D2F08B53D3008B63D4C
:100248003E08AD00AE01AF01B0012D08B9072E0878
:10025800BA3D2F08BB3D3008BC3D0830B335B40D5E
:10026800B50DB60D890B32292608AD002D08F4000E
:1002780029088D317625803175082000BE00740864
:10028800BD003D08B3073E08B43D0030B53DB63D5E
:100298002508AD002D08F4002A088D317625803117
:1002A80075082000BE007408BD003D08B3073E086D
:1002B800B43D0030B53DB63D0830B335B40DB50D8D
:1002C800B60D890B61292508AD002D08F400290811
:1002D8008D317625803175082000BE007408BD0078
:1002E8003D08B3073E08B43D0030B53DB63D26088D
:1002F800AD002D08F4002B088D3176258031750866
:100308002000BE007408BD003D08B9073E08BA3D8C
:100318000030BB3DBC3D2708AD002D08F4002A087D
:100328008D317625803175082000BE007408BD0027
:100338003D08B9073E08BA3D0030BB3DBC3D270823
:10034800AD002D08F4002B088D3176258031750815
:100358002000BE007408BD003D08AD003E08AE0098
:10036800AF01B0010830AD35AE0DAF0DB00D890B42
:10037800B7292D08B9072E08BA3D2F08BB3D30080C
:10038800BC3D3308AD003408AE003508AF00360870
:10039800B0001830B036AF0CAE0CAD0C890BCE29BE
:1003A8002D08B9072E08BA3D2F08BB3D3008BC3DC3
:1003B8000830B335B40DB50DB60D890BDD293808F5
:1003C8003707AD00AE01AE0D2D08823EBD00FF30EF
:1003D8002E3DBE00082A0130B935BA0DBB0DBC0D43
:1003E800890BF029B61FF929FA29FC293914FC29A7
:1003F8000130B335B40DB50DB60D890BFD29FF30AD
:10040800BD07FF30BE3D082ABB1F0B2A0C2AEF2967
:100418000D2AB701B61F112A122A322AFF303305D6
:10042800AD00FF303405AE00FF303505AF007F303A
:100438003605B00030082F042E042D040319252A90
:10044800262A292AB701B70A322A391C2C2A2D2A2A
:10045800322AB701B70A322A322A322A3708031950
:10046800362A372A612A0130B9070030BA3D0030F0
:10047800BB3D0030BC3D3C1C422A432A612A390856
:10048800AD003A08AE003B08AF003C08B0000130B0
:10049800B100B037AF0CAE0CAD0CB10B4D2A300823
:1004A800BC002F08BB002E08BA002D08B900013087
:1004B800BD070030BE3D612A612A3E08803AAD0082
:1004C80080302D02031D6A2AFF303D02031C6D2A6D
:1004D8006E2A782A7F302000BC008030BB000030B4
:1004E800BA000030B900A92A20003E08803AAD00C1
:1004F80080302D02031D822A01303D020318852A0F
:10050800862A912A00302000BC000030BB00003051
:10051800BA000030B900B201A92A20003D08AD0098
:100528002D08B800FF30B905FF30BA057F30BB058C
:100538000030BC05381CA12AA22AA42ABB17A42A69
:100548003836AD002D08BC00A92A3208AD002D08A8
:10055800BC043C08A8003B08A7003A08A6003908D4
:10056800A500B62A0800200031088039B2003208F8
:10057800BB003135B2003208C200B01FC42AC52AF8
:10058800C72A4214C72A42080319CB2ACC2ADD2AD3
:10059800420A031DD02AD12ADA2A0030B1000030DD
:1005A800B0000030AF000030AE00DA2AB017B10159
:1005B800E62A0030B1000030B0000030AF00003053
:1005C800AE00E62A2D088039B2003208BB062D3568
:1005D800B2003208C300AC1FF22AF32AF52A4314EA
:1005E800F52A43080319F92AFA2A0B2B430A031D93
:1005F800FE2AFF2A082B0030AD000030AC00003086
:10060800AB000030AA00082BAC17AD01132B00304B
:10061800AD000030AC000030AB000030AA002D085F
:100628002C042B042A04031D1A2B1B2B352B0030FA
:10063800B1000030B0000030AF000030AE008030B4
:10064800B0047F30B1043B08B2003208B10431086D
:10065800AD003008AC002F08AB002E08AA00952C7E
:10066800952C4208031D392B3A2B4C2B0030B10036
:100678000030B0000030AF000030AE003108AD00EF
:100688003008AC002F08AB002E08AA00952C952C3A
:100698004308B200B301B209B309B20A0319B30A95
:1006A80042083207B40033080318330AB500340887
:1006B8007F3EBC000030353DBD003108BA0030082F
:1006C800B9002F08B8002E08B7000030B10000307C
:1006D800B0000030AF000030AE000030C100003084
:1006E800C0000030BF000030BE00C301BD2B43086E
:1006F80003197F2B802B9C2B0130B735B80DB90D12
:10070800BA0D890B812B0130AE35AF0DB00DB10D8F
:10071800890B882BC11F912B922B942B2E14942B71
:100728000130BE35BF0DC00DC10D890B952B9C2B1B
:100738002D083A02031DAA2B2C083902031DAA2BE7
:100748002B083802031DAA2B2A083702031CAD2BDD
:10075800AE2BB82B41172A08B7022B08B83B2C0838
:10076800B93B2D08BA3BB82B0130B2003208C30799
:10077800BD2B1A304302031CC22BC32B7B2BC42B6B
:100788003A083904380437040319CB2BCC2BE82B4F
:100798003E14E82BE82B0130AE35AF0DB00DB10D8E
:1007A800890BD02BC11FD92BDA2BDC2B2E14DC2B79
:1007B8000130BE35BF0DC00DC10D890BDD2BFF30DB
:1007C800BC07FF30BD3DE82BB01FEB2BEC2BCF2B2C
:1007D800ED2BC301C11FF12BF22B122CFF303E056C
:1007E800B200FF303F05B300FF304005B4007F3052
:1007F8004105B50035083404330432040319052CC7
:10080800062C092CC301C30A122C2E1C0C2C0D2CEF
:10081800122CC301C30A122C122C122C43080319E0
:10082800162C172C412C0130AE070030AF3D00309C
:10083800B03D0030B13D311C222C232C412C2E0818
:10084800B2002F08B3003008B4003108B5000130F9
:10085800B600B537B40CB30CB20CB60B2D2C35085A
:10086800B1003408B0003308AF003208AE000130E0
:10087800BC070030BD3D412C412C3D08803AB200F8
:1008880080303202031D4A2CFF303C02031C4D2CE1
:100898004E2C5B2CFF302000BC000030BD00003027
:1008A800B1000030B0000030AF000030AE002000D2
:1008B8003D08803AB20080303202031D652C0130B9
:1008C8003C020318682C692C752C2000BC01BD0162
:1008D8000030B1000030B0000030AF000030AE0092
:1008E800BB0120003C08B2003208C200421C7D2C2B
:1008F8007E2C802CB017842C7F30B2003208B005D3
:100908004236B2003208B1003B08B2003208B104E6
:100918003108AD003008AC002F08AB002E08AA0043
:10092800952C08002000A41F9A2C9B2CA72C230987
:10093800A6002409A700A60A0319A70A2608AC00DE
:100948002708AD00AC2C2408AD002308AC00AC2C63
:10095800AB01AA01A901A8010A30F4000030F50092
:100968002D08F7002C08F6008D31FB25843174081A
:10097800A03E8600870101082000A6002608AB00DB
:100988000A30F4000030F5002D08F7002C08F600B6
:100998008E317526843175082000AD007408AC00CE
:1009A8002C082D040319D92CDA2C452D0A30F40013
:1009B8000030F5002D08F7002C08F6008D31FB25D6
:1009C80084317408A03E8600870101082000A60033
:1009D8002608AA000A30F4000030F5002D08F700B8
:1009E8002C08F6008E317526843175082000AD007C
:1009F8007408AC002C082D040319032D042D452D73
:100A08000A30F4000030F5002D08F7002C08F60035
:100A18008D31FB2584317408A03E860087010108CA
:100A28002000A6002608A9000A30F4000030F500CE
:100A38002D08F7002C08F6008E31752684317508CC
:100A48002000AD007408AC002C082D0403192D2DCE
:100A58002E2D452D0A30F4000030F5002D08F70042
:100A68002C08F6008D31FB2584317408A03E8600E1
:100A7800870101082000A6002608A800452D452D5D
:100A8800452DA41B482D492D4D2DA51D4C2D4D2D13
:100A98004E2D2B17251D512D522D532D2A17A51CD0
:100AA800562D572D582D2917251C5B2D5C2D5E2D95
:100AB80028175E2D2808A6002608EA002908A6009F
:100AC8002608EB002A08A6002608EC002B08A6003A
:100AD8002608ED0008002000630862046104600431
:100AE8000319772D782D812D670866046504640441
:100AF800031D7F2D802D8A2D812D0430D3000030D9
:100B0800D2000030D1000030D000B22D6408C400FB
:100B18006508C5006608C6006708C7006009C80000
:100B28006109C9006209CA006309CB00C80A031930
:100B3800C90A0319CA0A0319CB0A4808C40749088D
:100B4800C53D4A08C63D4B08C73D4708D30046087F
:100B5800D2004508D1004408D000B22D5C08CC0072
:100B68005D08CD00890D893B8909CE00CF004F086B
:100B7800F7004E08F6004D08F5004C08F400013067
:100B880086312626853177082000D7007608D600DA
:100B98007508D5007408D4005308F7005208F60009
:100BA8005108F5005008F4000030863126268531BA
:100BB80077082000AD007608AC007508AB00740813
:100BC800AA005708B1005608B0005508AF005408ED
:100BD800AE008231B722853120002D08D7002C08BD
:100BE800D6002B08D5002A08D4004C30A800643061
:100BF800A700E130A600C030A5005708AC00560891
:100C0800AB005508AA005408A90080314C20853152
:100C180020002808D7002708D6002608D500250870
:100C2800D4005708F7005608F6005508F500540890
:100C3800F4008631DB26853175082000E900740848
:100C4800E80008002000A400240803192C2E2D2EEB
:100C5800412EF71F302E312E412E7409A60075093A
:100C6800A7007609A8007709A900A60A0319A70A08
:100C78000319A80A0319A90A492E7708A9007608B2
:100C8800A8007508A7007408A600770876047504FC
:100C98007404031D502E512E5B2E0030F7000030D7
:100CA800F6000030F5000030F400DA2EDA2E963027
:100CB800A0002008A5006C2E0130A0002008A50780
:100CC8000130A936A80CA70CA60C890B652E6C2E32
:100CD800FE302905031D712E722E602E872E872E59
:100CE8000130A0002008A5070130A6070030A73D65
:100CF8000030A83D0030A93D0130A936A80CA70C4A
:100D0800A60C890B812EFF302905031D8C2E8D2EF4
:100D1800742E992E992E0130A5020130A635A70D03
:100D2800A80DA90D890B922E992EA81B9C2E9D2EDD
:100D3800A42E023025020318A22EA32E8F2EA42E35
:100D48002518A72EA82EB02EFF30A605FF30A70520
:100D58007F30A805FF30A9050310A50C2508A000C1
:100D6800A101A201A3011830A035A10DA20DA30D68
:100D7800890BB82E2008A6042108A7042208A80475
:100D88002308A90424080319CA2ECB2ED12EF71F35
:100D9800CE2ECF2ED12EA917D12E2908F70028083C
:100DA800F6002708F5002608F400DA2E0800740873
:100DB8002000A0007508A1007608A2007708A3000B
:100DC8000310220D230DA4002408A6002608031DE5
:100DD800EE2EEF2EF92E0030F7000030F60000302E
:100DE800F5000030F4006F2F6F2F7408A00075080D
:100DF800A1007608A2007708A3001F30A336A20C32
:100E0800A10CA00C890B022F2008A4002408A5001F
:100E1800F617FF30F405FF30F505FF30F605003012
:100E2800F7059630A602A61F1A2F1B2F3E2F26085D
:100E3800803A973E0318212F222F2D2F0030F700DC
:100E48000030F6000030F5000030F4006F2F6F2FEF
:100E58002D2F0130F736F60CF50CF40C890B2E2FDC
:100E68000130A0002008A607031D3B2F3C2F2D2F83
:100E78005F2F5F2F20302602031C432F442F582F4B
:100E88000030F7000030F6000030F5000030F400C4
:100E98006F2F6F2F582F0130F435F50DF60DF70D24
:100EA800890B502F0130A6022608031D5C2F5D2FE9
:100EB8004F2F5F2F5F2F25080319632F642F6F2F84
:100EC800F409F509F609F709F40A0319F50A0319EB
:100ED800F60A0319F70A08002000A201A301A401D9
:100EE8009B30F4007408A5003D30F4007408A60097
:100EF8003830F4007408A7003830F4007408A800EB
:100F0800BE30F4007408A900AA01AB01AC01AD0120
:100F1800AF0109302F02031C922F932F952FE32F37
:100F2800E32F2F08223E860087010108F400740889
:100F3800EA002F08013E223E860087010108F400DE
:100F48007408EB002F08023E223E86008701010844
:100F5800F4007408EC002F08033E223E8600870147
:100F68000108F4007408ED00A001A1016E08F40066
:100F78007408AE00CE2F6E082E060319C42FC52F95
:100F8800CE2F0130A0070030A13D6E08F400740890
:100F9800AE00CE2F00302102C83003192002031CF6
:100FA800D62FD72FBF2FD82F0130F4007408AF07E2
:100FB80009302F02031CE12FE22F952FE32F0800A1
:100FC800BE3482343734A7348B34AD34BD348634E0
:100FD800BF34AF34FE0012001E00FE0BEF2F0034AA
:0C0FE800640080010131890BF52F0034FA
:101A66008D319D258D31873170278D313A2D20009E
:101A76005F0803193F2D402D3A2D85316F258D3195
:101A86002000DF016908A4006808A300A5018431CD
:101A960096248D313A2D3A2D3A2D80312C2820006E
:101AA600EE01BE30F4007408EA00BE30F40074089B
:101AB600EB00BE30F4007408EC00BE30F40074088D
:101AC600ED0025001008F0390138900070308E04C2
:101AD6007D308D00F0308E058B170B172E009A1473
:101AE60025008E1708002000A400A001A10174089B
:101AF600F600F7017608A2007708A300822D241CC1
:101B0600852D862D8A2D2208A0072308A13D0130A8
:101B1600A235A30D890B8B2D0310A40C2408031DDD
:101B2600952D962D822D972D2108F5002008F4007D
:101B36009C2D080020001311931093139312131277
:101B460093111310131311119110921212121215F0
:101B56003E004311200092143E00C31055303D0054
:101B66008F00AA308F000F100A30A1000930A200A2
:101B760055308F00AA308F000F148D3152258D31CC
:101B86008E3137268D3108002000161596149716CB
:101B960017166E0803396A3E860087010108980009
:101BA600DD2D1611F42D9610F42D9712F42D171223
:101BB600F42DF42D6E080339F000F1017108003A96
:101BC6000319E62DF42D7008003A0319D42D013AB5
:101BD6000319D62D033A0319D82D013A0319DA2D24
:101BE600F42D0130F0007008EE072E00901008006A
:101BF600740875040319002E012E312E2000A00151
:101C0600A00A0F2E0130F435F50D890B062E013092
:101C1600F8007808A0070F2EF51F122E132E052E9A
:101C2600152E152E75087702031D1B2E74087602D5
:101C3600031C1E2E1F2E242E7408F6027508F73B71
:101C4600242E0130F536F40C890B252E0130A00226
:101C5600031D2E2E2F2E152E312E312E7708F50030
:101C66007608F400362E0800F9012000D801D901C3
:101C7600DA01DB01DC01DD01DE01DF010030E3001A
:101C86000030E2000030E1000030E0000030E70004
:101C96000030E6000030E5000030E400E801E9012C
:101CA60024001108F03901389100CF308E058E14CA
:101CB6000E148B170B172E001A1426000E08F03977
:101CC60003388E008F018E171208F0390338920000
:101CD600930192178B170B172E0012101C149210DB
:101CE6009C1408002000A001A101740875040319C2
:101CF6007D2E7E2EB32EA201A20A8B2E0130F43544
:101D0600F50D890B822E0130F8007808A2078B2E7C
:101D1600F51F8E2E8F2E812E912E912E0130A035FD
:101D2600A10D890B922E75087702031D9C2E74084F
:101D36007602031C9F2EA02EA62E7408F6027508A6
:101D4600F73B2014A62E0130F536F40C890BA72E8E
:101D56000130A202031DB02EB12E912EB32EB32E4A
:101D66002108F5002008F400B82E080020005E08BF
:101D76000319BE2EBF2EFF2E7908F000F101F201E5
:101D8600F30173082100AD007208AC007108AB00C6
:101D96007008AA000830AA35AB0DAC0DAD0D890B45
:101DA600CE2E26000D082100AA040830AA35AB0D58
:101DB600AC0DAD0D890BD92E26000C082100AA0406
:101DC6002A082000E40721002B082000E53D210019
:101DD6002C082000E63D21002D082000E73D0130BB
:101DE600DE025E08031DF82EF92EFF2E0130F000EC
:101DF6007008DF00FF2EFF2E0D1D022F032F122F5E
:101E06008D1C062F072F0C2F0130D8070030D93D27
:101E1600212FFF30D807FF30D93D212F212F8D1CD0
:101E2600152F162F1B2FFF30D807FF30D93D212F36
:101E36000130D8070030D93D212F212F2E00121056
:101E4600080020005E080319292F2A2F6A2F790817
:101E5600F000F101F201F30173082100AD007208F0
:101E6600AC007108AB007008AA000830AA35AB0DAB
:101E7600AC0DAD0D890B392F260011082100AA04DF
:101E86000830AA35AB0DAC0DAD0D890B442F2600DD
:101E960010082100AA042A082000E40721002B08C4
:101EA6002000E53D21002C082000E63D21002D08FC
:101EB6002000E73D0130DE025E08031D632F642F1C
:101EC6006A2F0130F0007008DF006A2F6A2F8D1C20
:101ED6006D2F6E2F7D2F0D1D712F722F772FFF30D7
:101EE600D807FF30D93D8C2F0130D8070030D93DB7
:101EF6008C2F8C2F0D1D802F812F862F0130D80718
:101F06000030D93D8C2FFF30D807FF30D93D8C2FBC
:101F16008C2F2E00921008000130F0007008F9078F
:101F260079081F39031D982F992FDF2F7908031D74
:101F36009D2F9E2FB02F0030F0000030F1000030B2
:101F4600F2002030F30070082000E4027108E53B3F
:101F56007208E63B7308E73BB02F20005A09F000F1
:101F66005B09F100F00A0319F10A58087007F2003C
:101F76005908713DF3007208DC007308DD0059084A
:101F8600DB005808DA002030F0007008DE000C3064
:101F9600583E86008701403FE000413FE100423F56
:101FA600E200433FE3000030E7000030E600003087
:101FB600E5000030E400DF2F1F307905F0001F3008
:101FC6007006031DE72FE82FFD2F20005E0803197A
:101FD600ED2FEE2FFD2FDE010030E7000030E6008A
:101FE6000030E5000030E4000130F0007008DF004A
:0A1FF600FD2FFD2F2E001010080033
:020000040001F9
:0A000E00AA1FFD359F3FFC3FFF3F96
:00000001FF
